:020000040800F2
:100000000050002021020008270200082B020008EF
:100010009D020008A1020008E9020008000000009B
:10002000000000000000000000000000B10B00080C
:100030003503000800000000110C0008550C0008F2
:100040004D0300084D0300084D0300084D03000850
:100050004D0300084D0300084D0300084D03000840
:100060004D0300084D0300084D0300084D03000830
:100070004D0300084D0300084D0300084D03000820
:100080004D0300084D0300084D0300084D03000810
:100090004D0300084D0300084D0300084D03000800
:1000A0004D0300084D0300084D0300084D030008F0
:1000B0004D0300084D0300084D0300084D030008E0
:1000C0004D0300084D0300084D0300084D030008D0
:1000D0004D0300084D0300084D0300084D030008C0
:1000E0004D0300084D0300084D0300080000000008
:1000F0000000000000000000000000000000000000
:1001000000000000000000005FF808F100B583B0B7
:1001100000F0AEF9304B314A1360314A1360314B75
:10012000314A32498B4204D21168196004330432D7
:10013000F7E72A4B1A682E4B9A4200D0FEE7284B6D
:100140001A682C4B9A42F9D1234B2B4A13602B4A45
:1001500013602B4B02E000221A600433294A9342B9
:10016000F9D3254B1B6813B9244B1B6803B1FEE779
:1001700000F08AF9694601A800F026F9224C234BC9
:10018000E41AA4100025AC4214DC214C214BE41AE3
:10019000A4100025AC4213DC0099019800F0A0FCEB
:1001A00005461D4C1D4BE41AA410002C0EDC2846FD
:1001B00000F0E6F8154B53F8253098470135E2E793
:1001C000144B53F8253098470135E3E7013C134BB6
:1001D00053F824309847E8E7BABADECA0000002096
:1001E0008C000020000000206C1D00089000002002
:1001F000785634123254769890000020444A0020F9
:1002000090000020484A0020780300087803000886
:1002100078030008780300087803000878030008D2
:1002200008B5FFF773FF00BEFEE71EF0040F0CBF1A
:10023000EFF30880EFF309807146414A10472DE93A
:10024000F04182B004468846124B5E6B9F6B9D6AFC
:100250001B6B13F0020F03D00E4BDB6A002B0CDB81
:100260000D4800F0B9F8CDF800803B4632462946EB
:10027000204600F00DF900BEFEE74BF6AB6100F042
:1002800081F90028ECD0034B4FF00042DA6202B053
:10029000BDE8F08100ED00E0E41C000800BEFEE7D0
:1002A0001EF0040F0CBFEFF30880EFF309807146D6
:1002B000244A10472DE9F04182B004468846084B95
:1002C0005E6B9F6B9D6A074800F086F8CDF8008052
:1002D0003B4632462946204600F0DAF800BEFEE7EB
:1002E00000ED00E0F41C00081EF0040F0CBFEFF35B
:1002F0000880EFF309807146134A10472DE9F04159
:1003000082B004468846084B5E6B9F6B9D6A074827
:1003100000F062F8CDF800803B4632462946204680
:1003200000F0B6F800BEFEE700ED00E0001D00089A
:1003300000BEFEE700BEFEE700BEFEE7704700001D
:100340003F020008B5020008FD02000800BEFEE7FB
:100350006C1D000800000020900000206C1D0008AB
:10036000000000000000000090000020484A00202B
:08037000000000000000000085
:10038000FEE7000008B503460C4A12685AB10B4A52
:100390001068033323F003030344094A934206D849
:1003A000064A136008BD054A06491160EFE700F0F0
:1003B000D1FF0C2303604FF0FF30F3E794000020DF
:1003C000004C0020484A002001230360014B0B60D1
:1003D000704700BF040000200FB400B583B004AB29
:1003E00053F8042B01938021064800F0F9FF002800
:1003F00003DD0146034800F037F803B05DF804EB75
:1004000004B070479C0000202DE9F04385B00446FD
:100410000F4643560BB10E461EE0042528462146E2
:10042000ABBE0446384605B0BDE8F08314F9011BA5
:1004300004AA1A4402F8101C0133AB42F6D304AAF2
:100440001344002203F8102C4FF00408E9464046FC
:100450004946ABBE8046761B002EE3D03546102EB3
:1004600028BF10250023E8E708B5FFF7CDFF08BD3A
:1004700008B500F0FDF8024A024B9A6008BD00BFC3
:100480000000000800ED00E008B500F019F908BD13
:10049000F8B504460D4617461E462748FFF79CFF51
:1004A00021682648FFF798FF61682548FFF794FF09
:1004B000A1682448FFF790FFE1682348FFF78CFF0D
:1004C00021692248FFF788FF61692148FFF784FF0F
:1004D000A1692048FFF780FFE1691F48FFF77CFF13
:1004E0001E48FFF779FF29461D48FFF775FF1D4C91
:1004F000E16A1D48FFF770FF216B1C48FFF76CFF96
:10050000E16B1B48FFF768FF15F0800F0AD115F467
:10051000004F0CD11748FFF75FFF06991648FFF709
:100520005BFFF8BD39461548FFF756FFEFE7314648
:100530001348FFF751FFEDE7C81B0008D81B000860
:10054000E81B0008F81B0008081C0008181C00081D
:10055000281C0008381C0008481C0008581C00080B
:10056000641C000800ED00E0741C0008841C0008F6
:10057000941C0008C41C0008CC1C0008A41C000823
:10058000B41C000883691A888A4201D00020704791
:100590000268033A012A03D80233836101207047BD
:1005A0000020704782B00023019300932C4A136807
:1005B00043F4803313602A4B1B6803F40033009329
:1005C000019B01330193009B1BB9019BB3F5A06F05
:1005D000F1D1234B1B6813F4003F06D00123009395
:1005E000009B012B04D002B0704700230093F7E773
:1005F0001C4B1A6842F010021A601A6822F00302BB
:100600001A601A6842F002021A60A3F580535A6811
:100610005A605A685A605A6842F480625A605A684E
:1006200022F47C125A605A6842F4E8125A601A683E
:1006300042F080721A600A4B1B6813F0007FFAD0F8
:10064000074B5A6822F003025A605A6842F00202CD
:100650005A60034B5B6803F00C03082BF9D1C2E727
:10066000001002400020024008B5FFF79BFF08BDC4
:1006700008B5104B1A6842F001021A6059680E4A18
:100680000A405A601A6822F0847222F480321A609A
:100690001A6822F480221A605A6822F4FE025A6014
:1006A0004FF41F029A60FFF7DFFF044B4FF0006228
:1006B0009A6008BD001002400000FFF800ED00E065
:1006C0001F4B5B6803F00C03042B15D0082B17D0CD
:1006D0001BB11C4B1C4A1A6002E01A4B1A4A1A60E2
:1006E000174B5B68C3F30313184AD35CDAB215499E
:1006F0000B68D3400B607047124B134A1A60EFE748
:100700000F4A53685268C3F38343023312F4803FA5
:100710000AD00B4A526812F4003F0BD00C4A02FB7D
:1007200003F3084A1360DBE7094A02FB03F3054AB7
:100730001360D5E7044A02FB03F3024A1360CFE7D4
:10074000001002401C00002000127A000C00002063
:1007500000093D0010B4012824D018B1022841D06E
:1007600010BC7047072910D90F29F9D8A1F1080446
:10077000E4B2A4000F23A3402A48016821EA03033E
:1007800002FA04F119430160EAE789000F2303FA32
:1007900001F0254C236823EA000302FA01F1194312
:1007A0002160DDE7072910D90F29D9D8A1F1080068
:1007B000C0B280000F2383401C4C216821EA030350
:1007C00002FA00F119432160CAE789000F2303FAF6
:1007D00001F0174C236823EA000302FA01F11943E0
:1007E0002160BDE7072910D90F29B9D8A1F1080365
:1007F000DBB29B000F2098400E4C216821EA0000DC
:1008000002FA03F101432160AAE789000F2303FAEA
:1008100001F0094C236823EA000302FA01F11943AD
:1008200021609DE70408014000080140040C0140DC
:10083000000C01400410014000100140034B4FF434
:1008400080321A60043301221A607047001002409F
:100850001F291CD801280BD010B1022810D07047D6
:10086000012303FA01F10A4A13680B43136070472E
:10087000012303FA01F1074A13680B431360704721
:10088000012303FA01F1044A13680B431360704714
:10089000141002401C10024018100240094B40F294
:1008A00041329A60DA6842F00402DA60DA6842F0B3
:1008B0000802DA60DA6842F40052DA6000221A6054
:1008C000704700BF0038014000220DE008494B602E
:1008D000074B1B6813F0800FFAD005490B6823F013
:1008E00080030B600132D2B2835C002BEED17047E3
:1008F00000380140074B23F00703074A136000202C
:100900005060064A44F2F8715160106059601A60F4
:10091000704700BF24010020284900201C49002006
:1009200070B5044600F0C4FB224B1B687BB134B1A8
:10093000083414F0070F02D024F007040834621EB4
:1009400044F2F6739A4231D81B490B6807E0FFF76F
:10095000D1FF184B01221A60E9E7194613465A687D
:10096000A24202D21A68002AF7D1144A93421FD039
:100970000D6808351A680A605A68121B102A0CD9CB
:100980001E1972605C6074680B4900E011460A68C9
:100990005068A042FAD332600E605968084A136862
:1009A0005B1A136000F00CFC284670BD0025F9E7C7
:1009B0000025F7E724490020284900201C49002091
:1009C00020000020D0B138B50446A0F1080500F0A1
:1009D0006FFB54F8040C0A4A00E01A461368596881
:1009E0008142FAD344F8083C156054F8041C054AC7
:1009F00013680B44136000F0E3FB38BD704700BF81
:100A0000284900202000002000F1080343604FF037
:100A1000FF328260C36003610023036070470023DC
:100A20000361704743684B609A688A609A685160B6
:100A300099600861036801330360704730B40D6842
:100A4000B5F1FF3F02D000F1080202E0026904E0C4
:100A50001A4653681C68AC42FAD953684B609960D7
:100A60008A605160086103680133036030BC7047DD
:100A700003694268816891608268416851605A6880
:100A8000824206D0002202611A68013A1A60186890
:100A9000704782685A60F5E7044A1378013313708F
:100AA000034A137801331370F6E700BF3049002082
:100AB0003149002008B502E02F2000F0F3FB054B80
:100AC0001A78054B1B789A42F6D00448FFF7FCFED3
:100AD000F2E700BF3049002031490020101D000816
:100AE00000B585B0FFF7AAFE02210846FFF7B0FE69
:100AF0000E210220FFF7ACFE092211460020FFF76D
:100B000029FEFFF7CBFE03AB0193012300930023E3
:100B100078220849084800F067FA02AB01930223E3
:100B20000093002378220549054800F05DFA00F0A3
:100B30008DFAFEE7201D0008990A0008281D00080C
:100B4000B50A000882B0002301934FF0BF0383F37E
:100B50001188BFF36F8FBFF34F8F019B002BFCD029
:100B600002B0704706480068006880F3088862B6E3
:100B700061B6BFF34F8FBFF36F8F00DF00BF000080
:100B800008ED00E04FF0807340F8043C21F00101D3
:100B900040F8081C034B40F80C3C40F8202C40382F
:100BA000704700BF450B0008000000000000000077
:100BB000074B19680868B0E8F00F80F30988BFF3A5
:100BC0006F8F4FF0000080F311884EF00D0E7047CC
:100BD000344900204FF0BF0383F31188BFF36F8FB8
:100BE000BFF34F8F024A136801331360704700BF91
:100BF00024000020034A1368013B13600BB983F300
:100C00001188704724000020000000000000000050
:100C1000EFF30980BFF36F8F0D4B1A6820E9F00FD7
:100C200010602DE908404FF0BF0080F3118800F0FC
:100C300053FB4FF0000080F31188BDE808401968AD
:100C40000868B0E8F00F80F30988BFF36F8F704732
:100C50003449002008B54FF0BF0383F31188BFF378
:100C60006F8FBFF34F8F00F02BFA18B1034B4FF08B
:100C700080521A60002383F3118808BD04ED00E060
:100C8000054B00221A6005490A60054A05491160B2
:100C900007221A60704700BF10E000E018E000E093
:100CA00014E000E03F19010010B50B4B1A6842F444
:100CB0007F021A601A6842F07F421A60FFF7E0FF75
:100CC0000024064B1C60FFF74DFF00F005FBFFF70B
:100CD00039FF204610BD00BF20ED00E024000020B9
:100CE000074B1B681B6833B1054B1B68DB681A6830
:100CF000044B1A607047034B4FF0FF321A60704785
:100D000038490020E449002010B50446006BFFF785
:100D100059FE2046FFF756FE10BD2DE9F0478146EB
:100D20000D4617469A46089EDDF824800A9C9200DC
:100D3000A521206B00F01FFB236B07F18042013AD5
:100D400003EB820727F00707002D39D000230F2B74
:100D500007D8E956E21882F83410EA560AB101338E
:100D6000F5E7002384F84330042E00D90426E66218
:100D7000E66400252565201DFFF751FE04F11800EB
:100D8000FFF74DFE2461C6F10506A66164620422E8
:100D9000294604F1540000F0EEFA0122294604F13C
:100DA000580000F0E8FA524649463846FFF7EAFE96
:100DB0002060B8F1000F01D0C8F80040BDE8F0870E
:100DC000002384F83430CFE738B5002407E004EB83
:100DD000840293000E481844FFF716FE0134042CD9
:100DE000F5D90C4D2846FFF70FFE0B4C2046FFF7B8
:100DF0000BFE0A48FFF708FE0948FFF705FE094801
:100E0000FFF702FE084B1D60084B1C6038BD00BF99
:100E100040490020B8490020CC490020F04900207A
:100E20001C4A0020084A0020384900203C49002084
:100E300010B50446FFF7CEFE214A13680133136054
:100E4000204B1B685BB1204B1B686BB91D4B1B68AB
:100E5000DA6AE36A9A4207D81A4B1C6004E0194B1D
:100E60001C601368012B27D0184A136801331360E4
:100E70006364E36A01229A401549086802430A60E4
:100E800003EB83039A00211D12481044FFF7CAFDAB
:100E9000FFF7B0FE0C4B1B686BB10A4B1B68DA6A9C
:100EA000E36A9A4207D20C4B4FF080521A60BFF3AC
:100EB0004F8FBFF36F8F10BDFFF786FFD4E700BFE2
:100EC000A449002034490020044A0020B0490020F1
:100ED000B44900204049002004ED00E00F4B1B689E
:100EE000D3B110B5FFF776FE0D4BDB68DC68201D33
:100EF000FFF7BEFD0B4A1368013B1360074A1368F6
:100F0000013B1360FFF776FE2046FFF7FDFE034B23
:100F10001B68002BE6D110BD704700BFA849002018
:100F20001C4A0020A449002008B5FFF7D7FF064B54
:100F30001B68012BF9D9054B4FF080521A60BFF3A3
:100F40004F8FBFF36F8FF0E74049002004ED00E0C2
:100F500070B504460E461D4B1D681D4B18680430C5
:100F6000FFF786FD50B91A4B1B68DA6A012303FAB2
:100F700002F218490B6823EA02030B60B4F1FF3F49
:100F800013D02C44124B1B685C60A54216D8124B40
:100F900018680F4B19680431FFF750FD0F4B1B68A1
:100FA000A34212D90D4B1C600FE0002EE9D0084B74
:100FB000196804310A48FFF735FD06E0094B186847
:100FC000034B19680431FFF739FD70BD304A00202A
:100FD00034490020B449002038490020E449002069
:100FE000084A00203C4900202DE9F04385B007461F
:100FF0008846154699469000FFF792FCF8B10646E0
:101000005C20FFF78DFC0446A8B10663D4B1002331
:10101000039302940D9B01930C9B00934B462A462D
:1010200041463846FFF779FE2046FFF701FF0120D1
:1010300005B0BDE8F0833046FFF7C4FCE6E74FF0AB
:10104000FF30F5E74FF0FF30F2E7000000B583B066
:10105000114B019300230093782210491048FFF7A9
:10106000C3FF012802D003B05DF804FB4FF0BF03BB
:1010700083F31188BFF36F8FBFF34F8F094B4FF08E
:10108000FF321A60084B01221A60084B00221A60D6
:10109000FFF70AFEE7E700BFE0490020301D000827
:1010A000290F0008E4490020044A0020304A0020AB
:1010B000024A136801331360704700BFAC49002037
:1010C000F8B5344B1B68002B5DD1334B1D680135DF
:1010D0001D60ADB1314B1B68AB424AD90027304B84
:1010E0001B68DB6A03EB83039A002E4B9B58012B92
:1010F00000D901272C4B1B68002B49D0012747E062
:101100002A4A11682A4B186810601960294A136826
:1011100001331360FFF7E4FDDCE70127234B1B6875
:101120001B6843B3214B1B68DB68DC6863689D4226
:1011300026D3261D3046FFF79BFCA36A1BB104F1A2
:101140001800FFF795FCE36A01229A401A490868E3
:1011500002430A6003EB83039A00314611481044AE
:10116000FFF760FCE26A0E4B1B68DB6A9A42D4D23E
:10117000D4E70027D2E7094B4FF0FF321A60AEE701
:10118000064A1360ABE70D4A13680133136000276A
:101190003846F8BDAC490020304A0020E449002020
:1011A0003449002040490020344A002038490020BA
:1011B0003C490020E8490020B4490020EC490020C7
:1011C00038B5FFF707FD2E4B1A68013A1A601B6805
:1011D000002B4DD12B4B1B683BB300242A4B1B68C3
:1011E0002BB3294BDB68DC6804F11800FFF740FCE7
:1011F000251D2846FFF73CFCE36A01229A4023495B
:10120000086802430A6003EB83039A0029462048DA
:101210001044FFF707FCE26A1E4B1B68DB6A9A4228
:10122000DCD31D4B01221A60D8E7002421E00CB169
:10123000FFF756FD194B1C6874B9174B1B68E3B1D7
:10124000174B4FF080521A60BFF34F8FBFF36F8F71
:1012500001240EE0013C07D0FFF732FF0028F9D04F
:101260000D4B01221A60F5E70C4B00221A60E4E7EF
:101270000024FFF7BFFC204638BD0024F9E700BF7B
:10128000AC490020A4490020F0490020B4490020C6
:101290004049002034490020344A0020EC49002015
:1012A00004ED00E010B540B90A4B4FF080521A60CF
:1012B000BFF34F8FBFF36F8F10BD0446FFF7F8FEEB
:1012C00000212046FFF744FEFFF77AFF0028EBD00D
:1012D000F2E700BF04ED00E0194B1B681BBB10B424
:1012E000184B00221A60184B1B68B3FA83F3DBB269
:1012F000C3F11F0315489A00D418A10001444C689B
:1013000064684C601A4491000831084484420ED04D
:1013100003EB83039A000D4B13445B68DA680C4BB4
:101320001A6010BC7047074B01221A607047606852
:1013300003EB83029100054A0A445060E8E700BFCE
:10134000AC490020344A0020B44900204049002024
:1013500034490020014B1868704700BF2800002066
:1013600010B5431E0A44914200D110BD11F8014B43
:1013700003F8014FF7E703460244934200D1704758
:1013800003F8011BF9E730B5141E05469BB018465B
:1013900005DA8B234FF0FF302B601BB030BD4FF4CC
:1013A0000273ADF80C300CBF234604F1FF330293F7
:1013B00005934FF6FF7300910491ADF80E3002468D
:1013C0001E9B6946284600F073F8431CBCBF8B2364
:1013D0002B60002CE1D00022009B1A70DDE700009A
:1013E00007B5009313460A46014603480068FFF715
:1013F000CAFF03B05DF804FB280000202DE9F04788
:101400008E6882469E420C469046994637D88A8915
:1014100012F4906F31D00223256809696F1A65694B
:1014200005EB450595FBF3F509F101033B449D42AE
:1014300038BF1D46530530D5294600F02BFB064624
:1014400050B90C234FF0FF30CAF80030A38943F0A5
:101450004003A381BDE8F0873A462169FFF780FF8A
:10146000A38923F4906343F08003A38126613E4463
:1014700026604E466561ED1BA5604E4500D94E467F
:1014800032464146206800F09FFAA36800209B1B6B
:10149000A36023681E442660DCE72A4600F054FB64
:1014A00006460028E2D12169504600F0A7FAC8E7B5
:1014B0002DE9F04F9DB003938B8980461D060C46A5
:1014C00016460FD50B696BB9402100F0E3FA206096
:1014D000206128B90C23C8F800304FF0FF30C7E076
:1014E000402363610023099320238DF829303023A2
:1014F0004FF0010B8DF82A3037463D4615F8013B79
:101500000BB1252B3ED1B7EB060A0BD05346324622
:1015100021464046FFF772FF013000F0A480099B8E
:10152000534409933B78002B00F09D8000234FF03B
:10153000FF32CDE90523049307938DF853301A93B6
:101540002F46052217F8011B4F4800F02FFA049B85
:10155000D0B9D90644BF20228DF853201A0744BFC2
:101560002B228DF853202A782A2A15D02F460020C6
:101570000A25079A394611F8013B303B092B4DD912
:10158000B8B10FE02F46B8E73F4A3D46801A0BFA44
:1015900000F018430490D3E7039A111D12680391D9
:1015A000002A01DB079204E0524243F00203079253
:1015B00004933B782E2B0CD17B782A2B33D1039BC1
:1015C00002371A1D1B680392002BB8BF4FF0FF3380
:1015D00005932E4D03223978284600F0E7F938B1FB
:1015E0004023401B03FA00F0049B0137034304939C
:1015F0003978062226487E1C8DF8281000F0D6F98E
:10160000002838D0234B13BB039B073323F0070379
:1016100008330393099B4B4409936DE705FB0232A2
:1016200001200F46A6E700230A2519460137059336
:10163000384610F8012B303A092A03D9002BC8D0BC
:101640000591C6E705FB012101230746F0E703AB3F
:1016500000932246104B04A94046AFF30080B0F13E
:10166000FF3F8146D6D1A3895B063FF536AF099887
:101670001DB0BDE8F08F03AB00932246064B04A9D2
:10168000404600F081F8EAE7381D00083E1D0008DA
:10169000421D000800000000FD1300082DE9F0477E
:1016A00091461F468A680B6906469342B8BF1346A7
:1016B000C9F8003091F843200C46DDF8208012B1C3
:1016C0000133C9F800302368990642BFD9F80030C9
:1016D0000233C9F80030256815F0060507D104F17A
:1016E000190AE368D9F800209B1AAB4229DC94F868
:1016F00043302268003318BF012392062ED404F130
:10170000430239463046C047013021D02368E5689E
:1017100003F00603042B18BF0025D9F800204FF072
:10172000000908BFAD1AA368226908BF25EAE5755C
:101730009342C4BF9B1AED181A344D451AD10020AC
:1017400008E00123524639463046C047013003D1F4
:101750004FF0FF30BDE8F0870135C2E73020E118D7
:1017600081F843005A1C94F845102244023382F851
:101770004310C4E70123224639463046C0470130B2
:10178000E6D009F10109D8E72DE9F04301F1430C56
:101790000C46097E85B06E291746064698460C9A77
:1017A00000F0B38022D8632936D00AD8002900F08F
:1017B000B980582900F0838004F1420584F8421072
:1017C00032E0642901D06929F6D120681368050642
:1017D00003F104012AD51B681160002B03DA2D22C6
:1017E0005B4284F843206F480A2239E0732900F0F5
:1017F0009D8008D86F2920D07029DDD1236843F05F
:101800002003236003E0752917D07829D4D17823E9
:10181000654884F8453055E0136804F14205191D08
:101820001B68116084F8423001238CE01B6810F0C3
:10183000400F116018BF1BB2CFE713682568181D51
:101840001060280601D51B6802E06806FBD51B88DE
:101850006F2914BF0A2208225248002184F843103D
:101860006568002DA560C0F29580216821F0040113
:101870002160002B3DD1002D40F08E806546082A66
:101880000BD12368DB0708D5236962689A42DEBF63
:10189000302305F8013C05F1FF35ACEB050323616E
:1018A000CDF800803B4603AA21463046FFF7F6FEFE
:1018B00001304DD14FF0FF3005B0BDE8F08339481D
:1018C00084F84510136821681D1D1B6815600A0601
:1018D0000BD5CA0744BF41F0200121601BB9226823
:1018E00022F0200222601022B7E74D0648BF9BB2CB
:1018F000EFE76546B3FBF2F102FB1133C35C05F879
:10190000013D0B460029F5D1B9E713682568181D7C
:101910006169106028061B6801D5196002E06A063B
:10192000FBD51980002365462361B9E71368191DAB
:1019300011601D6862680021284600F037F808B180
:10194000401B606063682361002384F84330A7E78D
:1019500023692A4639463046C0470130AAD0236859
:101960009B0713D4E068039B9842B8BF1846A3E7CF
:1019700001234A4639463046C04701309AD00135E6
:10198000E368039A9B1AAB42F2DCEBE7002504F113
:101990001909F5E7002BACD1037804F1420584F86E
:1019A00042306CE7491D00085A1D000810B5C9B245
:1019B00002449042034601D1002303E01C78013029
:1019C0008C42F6D1184610BD884210B501EB0203D7
:1019D00007D8421E99420AD011F8014B02F8014F74
:1019E000F8E78342F5D98118D21AD34200D110BD4D
:1019F00013F8014D01F8014DF7E7000038B5054631
:101A0000002943D051F8043C0C1F002BB8BFE41848
:101A100000F0D0F81E4A1368104633B963601460B2
:101A20002846BDE8384000F0C6B8A3420BD921686B
:101A30006218934201BF1A685B68521822606360A3
:101A40000460EDE713465A680AB1A242FAD9196850
:101A50005818A0420BD120680144581882421960DE
:101A6000DED110685268014419605A60D8E702D983
:101A70000C232B60D4E7206821188A4201BF11682B
:101A800052680918216062605C60C9E738BD00BF18
:101A9000384A002070B5CD1C25F0030508350C2D03
:101AA00038BF0C25002D064601DBA94203D90C23C3
:101AB0003360002070BD00F07DF8214A1468214693
:101AC00091B9204C23681BB9304600F063F82060C0
:101AD0002946304600F05EF8431C24D10C233046E2
:101AE000336000F068F8E4E70B685B1B18D40B2B3D
:101AF0000FD90B60CC18CD50304600F05CF804F1E3
:101B00000B00231D20F00700C31AD3D05A42E25025
:101B1000D0E74B688C4216BF636013600C46EBE75E
:101B20000C464968CCE7C41C24F00304A04205D04D
:101B3000211A304600F02EF80130CFD02560DBE7C7
:101B4000384A00203C4A0020F8B5074614460E46A5
:101B500021B9BDE8F8401146FFF79CBF22B9FFF755
:101B60004DFF25462846F8BD00F026F8A0420FD2CA
:101B700021463846FFF78EFF05460028F2D0314651
:101B80002246FFF7EDFB31463846FFF737FFE9E71E
:101B90003546E7E738B50023054C0546084623607F
:101BA000FEF7F0FB431C02D1236803B12B6038BD64
:101BB000404A00207047704751F8043C181F002B22
:101BC000BCBF0B58C0187047537461636B206672BA
:101BD000616D653A0A000000205230203D2020252A
:101BE0003038580A00000000205231203D202025C6
:101BF0003038580A00000000205232203D202025B5
:101C00003038580A00000000205233203D202025A3
:101C10003038580A0000000020523132203D202583
:101C20003038580A00000000204C52203D2020256A
:101C30003038580A00000000205043203D20202565
:101C40003038580A0000000020505352203D202513
:101C50003038580A000000004653522F4641523A8D
:101C60000A0000002043465352203D2020253038F2
:101C7000580A00002048465352203D202025303885
:101C8000580A00002044465352203D202025303879
:101C9000580A00002041465352203D20202530386C
:101CA000580A0000204D4D464152203D2025303835
:101CB000580A00002042464152203D20202530385D
:101CC000580A00004D6973630A000000204C522F2F
:101CD0004558435F52455455524E3D2025303858A3
:101CE0000A0000005B486172644661756C745D0AAD
:101CF000000000005B4275734661756C745D0A00FC
:101D00005B55736167654661756C745D0A00000020
:101D10005368617265642070726F626C656D21003A
:101D20007461736B310000007461736B32000000EA
:101D300049444C4500000000232D302B2000686CE6
:101D40004C006566674546470030313233343536DE
:101D50003738394142434445460030313233343517
:0B1D6000363738396162636465660045
:101D6C00785634129800002000000000000000009B
:101D7C0000000000010203040607080900A24A043F
:101D8C00F8470000AAAAAAAA2C0000200000000014
:101D9C000000000000000000000000000000000037
:101DAC000000000000000000000000000000000027
:101DBC000000000000000000000000000000000017
:101DCC000000000000000000000000000000000007
:101DDC0000000000000000000000000000000000F7
:101DEC000000000000000000000000003254769853
:040000050800010DE1
:00000001FF
