:020000040800F2
:100000000050002021020008270200082B020008EF
:100010009D020008A1020008E9020008000000009B
:10002000000000000000000000000000010E0008B9
:100030003503000800000000610E0008A50E00084E
:100040004D0300084D0300084D0300084D03000850
:100050004D0300084D0300084D0300084D03000840
:100060004D0300084D0300084D0300084D03000830
:100070004D0300084D0300084D0300084D03000820
:100080004D0300084D0300084D0300084D03000810
:100090004D0300084D0300084D0300084D03000800
:1000A0004D0300084D0300084D0300084D030008F0
:1000B0004D0300084D0300084D0300084D030008E0
:1000C0004D0300084D0300084D0300084D030008D0
:1000D0004D0300084D0300084D0300084D030008C0
:1000E0004D0300084D0300084D0300080000000008
:1000F0000000000000000000000000000000000000
:1001000000000000000000005FF808F100B583B0B7
:1001100000F0AEF9304B314A1360314A1360314B75
:10012000314A32498B4204D21168196004330432D7
:10013000F7E72A4B1A682E4B9A4200D0FEE7284B6D
:100140001A682C4B9A42F9D1234B2B4A13602B4A45
:1001500013602B4B02E000221A600433294A9342B9
:10016000F9D3254B1B6813B9244B1B6803B1FEE779
:1001700000F08AF9694601A800F026F9224C234BC9
:10018000E41AA4100025AC4214DC214C214BE41AE3
:10019000A4100025AC4213DC0099019800F0AAFDE0
:1001A00005461D4C1D4BE41AA410002C0EDC2846FD
:1001B00000F0E6F8154B53F8253098470135E2E793
:1001C000144B53F8253098470135E3E7013C134BB6
:1001D00053F824309847E8E7BABADECA0000002096
:1001E0008C000020000000204C2B00089000002014
:1001F000785634123254769890000020A84A002095
:1002000090000020AC4A0020780300087803000822
:1002100078030008780300087803000878030008D2
:1002200008B5FFF773FF00BEFEE71EF0040F0CBF1A
:10023000EFF30880EFF309807146414A10472DE93A
:10024000F04182B004468846124B5E6B9F6B9D6AFC
:100250001B6B13F0020F03D00E4BDB6A002B0CDB81
:100260000D4800F0B9F8CDF800803B4632462946EB
:10027000204600F00DF900BEFEE74BF6AB6100F042
:1002800081F90028ECD0034B4FF00042DA6202B053
:10029000BDE8F08100ED00E0BC2A000800BEFEE7EA
:1002A0001EF0040F0CBFEFF30880EFF309807146D6
:1002B000244A10472DE9F04182B004468846084B95
:1002C0005E6B9F6B9D6A074800F086F8CDF8008052
:1002D0003B4632462946204600F0DAF800BEFEE7EB
:1002E00000ED00E0CC2A00081EF0040F0CBFEFF375
:1002F0000880EFF309807146134A10472DE9F04159
:1003000082B004468846084B5E6B9F6B9D6A074827
:1003100000F062F8CDF800803B4632462946204680
:1003200000F0B6F800BEFEE700ED00E0D82A0008B5
:1003300000BEFEE700BEFEE700BEFEE7704700001D
:100340003F020008B5020008FD02000800BEFEE7FB
:100350004C2B000800000020900000204C2B0008CF
:10036000000000000000000090000020AC4A0020C7
:08037000000000000000000085
:10038000FEE7000008B503460C4A12685AB10B4A52
:100390001068033323F003030344094A934206D849
:1003A000064A136008BD054A06491160EFE701F0EF
:1003B000BDFE0C2303604FF0FF30F3E794000020F4
:1003C000004C0020AC4A002001230360014B0B606D
:1003D000704700BF040000200FB400B583B004AB29
:1003E00053F8042B01938021064801F0E5FE002814
:1003F00003DD0146034800F037F803B05DF804EB75
:1004000004B070479C0000202DE9F04385B00446FD
:100410000F4643560BB10E461EE0042528462146E2
:10042000ABBE0446384605B0BDE8F08314F9011BA5
:1004300004AA1A4402F8101C0133AB42F6D304AAF2
:100440001344002203F8102C4FF00408E9464046FC
:100450004946ABBE8046761B002EE3D03546102EB3
:1004600028BF10250023E8E708B5FFF7CDFF08BD3A
:1004700008B500F0FDF8024A024B9A6008BD00BFC3
:100480000000000800ED00E008B500F019F908BD13
:10049000F8B504460D4617461E462748FFF79CFF51
:1004A00021682648FFF798FF61682548FFF794FF09
:1004B000A1682448FFF790FFE1682348FFF78CFF0D
:1004C00021692248FFF788FF61692148FFF784FF0F
:1004D000A1692048FFF780FFE1691F48FFF77CFF13
:1004E0001E48FFF779FF29461D48FFF775FF1D4C91
:1004F000E16A1D48FFF770FF216B1C48FFF76CFF96
:10050000E16B1B48FFF768FF15F0800F0AD115F467
:10051000004F0CD11748FFF75FFF06991648FFF709
:100520005BFFF8BD39461548FFF756FFEFE7314648
:100530001348FFF751FFEDE7A0290008B029000894
:10054000C0290008D0290008E0290008F029000887
:10055000002A0008102A0008202A0008302A000873
:100560003C2A000800ED00E04C2A00085C2A000844
:100570006C2A00089C2A0008A42A00087C2A00088B
:100580008C2A000883691A888A4201D000207047AB
:100590000268033A012A03D80233836101207047BD
:1005A0000020704782B00023019300932C4A136807
:1005B00043F4803313602A4B1B6803F40033009329
:1005C000019B01330193009B1BB9019BB3F5A06F05
:1005D000F1D1234B1B6813F4003F06D00123009395
:1005E000009B012B04D002B0704700230093F7E773
:1005F0001C4B1A6842F010021A601A6822F00302BB
:100600001A601A6842F002021A60A3F580535A6811
:100610005A605A685A605A6842F480625A605A684E
:1006200022F47C125A605A6842F4E8125A601A683E
:1006300042F080721A600A4B1B6813F0007FFAD0F8
:10064000074B5A6822F003025A605A6842F00202CD
:100650005A60034B5B6803F00C03082BF9D1C2E727
:10066000001002400020024008B5FFF79BFF08BDC4
:1006700008B5104B1A6842F001021A6059680E4A18
:100680000A405A601A6822F0847222F480321A609A
:100690001A6822F480221A605A6822F4FE025A6014
:1006A0004FF41F029A60FFF7DFFF044B4FF0006228
:1006B0009A6008BD001002400000FFF800ED00E065
:1006C0001F4B5B6803F00C03042B15D0082B17D0CD
:1006D0001BB11C4B1C4A1A6002E01A4B1A4A1A60E2
:1006E000174B5B68C3F30313184AD35CDAB215499E
:1006F0000B68D3400B607047124B134A1A60EFE748
:100700000F4A53685268C3F38343023312F4803FA5
:100710000AD00B4A526812F4003F0BD00C4A02FB7D
:1007200003F3084A1360DBE7094A02FB03F3054AB7
:100730001360D5E7044A02FB03F3024A1360CFE7D4
:10074000001002401C00002000127A000C00002063
:1007500000093D0010B4012824D018B1022841D06E
:1007600010BC7047072910D90F29F9D8A1F1080446
:10077000E4B2A4000F23A3402A48016821EA03033E
:1007800002FA04F119430160EAE789000F2303FA32
:1007900001F0254C236823EA000302FA01F1194312
:1007A0002160DDE7072910D90F29D9D8A1F1080068
:1007B000C0B280000F2383401C4C216821EA030350
:1007C00002FA00F119432160CAE789000F2303FAF6
:1007D00001F0174C236823EA000302FA01F11943E0
:1007E0002160BDE7072910D90F29B9D8A1F1080365
:1007F000DBB29B000F2098400E4C216821EA0000DC
:1008000002FA03F101432160AAE789000F2303FAEA
:1008100001F0094C236823EA000302FA01F11943AD
:1008200021609DE70408014000080140040C0140DC
:10083000000C01400410014000100140012813D0B9
:1008400010B102281FD07047012A07D0002A2FD1EB
:10085000012303FA01F1174B19607047012303FAD2
:1008600001F1154B19607047012A06D002BB012324
:1008700003FA01F1114B19607047012303FA01F1EA
:100880000F4B19607047012A09D062B9012303FA9E
:1008900001F20C48036823EA0203036003E001232A
:1008A0008B40094A1360012303FA01F1074B1960D9
:1008B000704700BF1408014010080140140C0140AB
:1008C000100C01400C1001401010014014100140A8
:1008D00001280AD018B102280DD000207047094B1A
:1008E0001868C84000F001007047074B1868C840FE
:1008F00000F001007047054B1868C84000F0010087
:10090000704700BF08080140080C01400810014072
:10091000034B4FF480321A60043301221A6070478F
:10092000001002401F291CD801280BD010B102284A
:1009300010D07047012303FA01F10A4A13680B43F0
:1009400013607047012303FA01F1074A13680B4350
:1009500013607047012303FA01F1044A13680B4343
:1009600013607047141002401C100240181002401F
:100970001AB9084206D10020704731EA000303D0BB
:1009800000207047012070470120704710B51C20DF
:1009900000F0AAF8044620B1002320F8043B00F040
:1009A00017F9204610BD00002DE9F84307460E4612
:1009B00091469846BDF8205000F03AFF3C884246E8
:1009C00031462046FFF7D4FFE0B1B9F1000F2ED039
:1009D00024EA06033B80002500F0C2FF7DB138B950
:1009E0001D4B4FF080521A60BFF34F8FBFF36F8FD4
:1009F00001F0B0F9044610F4007F1AD0E4B22046AA
:100A0000BDE8F883002DE7D0B9F1000F0CD100212B
:100A1000B8F1000F01D041F480612A463143381DFE
:100A200001F078F80024D7E74FF48071F0E7002553
:100A3000D2E700F0F7F93C88424631462046FFF7FE
:100A400097FF28B1B9F1000F02D024EA06063E80D4
:100A500000F0F8F9D2E700BF04ED00E0F8B5044675
:100A60000D4600F10C0600F0E3FE206923881D43CB
:100A7000258000270AE0218832EA010105D110E033
:100A8000218841F4007101F0A7F82846B0420DD04A
:100A900045680388DAB213F4806FECD121881142E3
:100AA000F3D013F4807FEBD01743E9E7238823EAE0
:100AB0000707278000F054FF2088F8BD074B23F07C
:100AC0000703074A136000205060064A44F2F87199
:100AD0005160106059601A60704700BF2401002007
:100AE000284900201C49002070B5044600F0A0FEF3
:100AF000224B1B687BB134B1083414F0070F02D0CD
:100B000024F007040834621E44F2F6739A4231D886
:100B10001B490B6807E0FFF7D1FF184B01221A6051
:100B2000E9E7194613465A68A24202D21A68002A17
:100B3000F7D1144A93421FD00D6808351A680A602D
:100B40005A68121B102A0CD91E1972605C607468F6
:100B50000B4900E011460A685068A042FAD332609F
:100B60000E605968084A13685B1A136000F0F8FEBB
:100B7000284670BD0025F9E70025F7E72449002045
:100B8000284900201C49002020000020D0B138B5A1
:100B90000446A0F1080500F04BFE54F8040C0A4A84
:100BA00000E01A46136859688142FAD344F8083CB9
:100BB000156054F8041C054A13680B44136000F0D8
:100BC000CFFE38BD704700BF28490020200000201C
:100BD00000F1080343604FF6FF720281C3600361B6
:100BE00000230360704700230361704743684B6034
:100BF0009A688A609A685160996008610368013355
:100C00000360704730B40D884FF6FF739D4202D0E9
:100C100000F1080202E0026904E01A4653681C88E9
:100C2000AC42FAD953684B6099608A6051600861A0
:100C300003680133036030BC704703694268816810
:100C400091608268416851605A68824206D00022F1
:100C500002611A68013A1A601868704782685A601F
:100C6000F5E7000038B5FF2503E00F2000F0ECFEAB
:100C7000254601210020FFF72BFE0446002DF4D06D
:100C80000028F2D10121024B1868FFF7E7FEECE7DC
:100C90007C4A002038B5FF2503E00F2000F0D4FE89
:100CA000254602210020FFF713FE0446002DF4D054
:100CB0000028F2D10221024B1868FFF7CFFEECE7C3
:100CC0007C4A002010B582B0FF24094B18684FF60B
:100CD000FF73009301231A460321FFF765FE04F01A
:100CE000010200210846FFF7A9FDE443E4B2ECE766
:100CF0007C4A002000B587B0FFF70AFE02210846B3
:100D0000FFF710FE012211460020FFF723FD01220C
:100D100011460020FFF792FD012202210020FFF77B
:100D200019FD012202210020FFF788FD0222002187
:100D30000846FFF70FFDFFF729FE114B186005ABC2
:100D4000019303230093002378220E490E4800F0FC
:100D500007FD04AB019302230093002378220B4983
:100D60000B4800F0FDFC03AB01930123009300232B
:100D700078220849084800F0F3FC00F023FDFEE764
:100D80007C4A0020E82A0008C50C0008F02A000868
:100D9000650C0008F82A0008950C000882B00023B2
:100DA00001934FF0BF0383F31188BFF36F8FBFF33D
:100DB0004F8F019B002BFCD002B0704706480068A3
:100DC000006880F3088862B661B6BFF34F8FBFF347
:100DD0006F8F00DF00BF000008ED00E04FF0807370
:100DE00040F8043C21F0010140F8081C034B40F896
:100DF0000C3C40F8202C4038704700BF9D0D000887
:100E0000074B19680868B0E8F00F80F30988BFF352
:100E10006F8F4FF0000080F311884EF00D0E704779
:100E2000304900204FF0BF0383F31188BFF36F8F69
:100E3000BFF34F8F024A136801331360704700BF3E
:100E400024000020034A1368013B13600BB983F3AD
:100E500011887047240000200000000000000000FE
:100E6000EFF30980BFF36F8F0D4B1A6820E9F00F85
:100E700010602DE908404FF0BF0080F3118800F0AA
:100E8000FDFD4FF0000080F31188BDE808401968AF
:100E90000868B0E8F00F80F30988BFF36F8F7047E0
:100EA0003049002008B54FF0BF0383F31188BFF32A
:100EB0006F8FBFF34F8F00F0CFFC18B1034B4FF093
:100EC00080521A60002383F3118808BD04ED00E00E
:100ED000054B00221A6005490A60054A41F63F7138
:100EE000116007221A60704710E000E018E000E08F
:100EF00014E000E010B50B4B1A6842F47F021A6050
:100F00001A6842F07F421A60FFF7E2FF0024064BA6
:100F10001C60FFF753FF00F0B1FDFFF73FFF2046D5
:100F200010BD00BF20ED00E02400002010B50446F5
:100F3000FFF778FFA26BE36B9A4204D00024FFF71F
:100F400081FF204610BD0124F9E710B50446FFF7E4
:100F500069FFA36B23B10024FFF774FF204610BD87
:100F60000124F9E770B504461646856B026C5AB940
:100F700003681BB100200135A56370BD806800F0D7
:100F8000ADFE0023A360F6E76EB9406801F0D4F827
:100F9000226C636813446360A268934219D3236888
:100FA00063600020E7E7C06801F0C6F8226C524297
:100FB000E3681344E36021688B4202D2A3681A44B9
:100FC000E260022E01D00020D5E725B1013D0020CE
:100FD000D1E70020CFE70020CDE7026C72B110B559
:100FE000C3681344C3608468A34201D30368C36029
:100FF0000C46C168204601F09FF810BD704738B517
:101000000546FFF70FFF95F8454064B203E000F096
:101010004FFE013C64B2002C08DD6B6A33B105F170
:10102000240000F09DFD0028F3D0F0E7FF2385F8B1
:101030004530FFF707FFFFF7F5FE95F8444064B22F
:1010400003E000F035FE013C64B2002C08DD2B69A2
:1010500033B105F1100000F083FD0028F3D0F0E774
:10106000FF2385F84430FFF7EDFE38BD38B5044660
:101070000D46FFF7D7FE2168E26B236C03FB0210DD
:10108000A0600020A0636160013A02FB0313E360EB
:10109000FF2384F8443084F84530A5B923691BB98F
:1010A000FFF7D0FE012038BD04F1100000F058FD1C
:1010B0000028F5D0084B4FF080521A60BFF34F8FD5
:1010C000BFF36F8FECE704F11000FFF781FD04F12F
:1010D0002400FFF77DFDE3E704ED00E038B51D4691
:1010E000049C0B4649B12260E06323640121204641
:1010F000FFF7BCFF84F84C5038BD2460F4E7F0B52E
:1011000083B005460E46174601FB00F05030FFF74E
:10111000EBFC044638B100903B4600F150023146EA
:101120002846FFF7DBFF204603B0F0BDF0B585B0E1
:1011300004460F461E46ADF80620002539E032462B
:1011400039462046FFF70EFF636A6BB938B13E4B54
:101150004FF080521A60BFF34F8FBFF36F8FFFF7CE
:1011600071FE012005B0F0BD04F1240000F0F8FC90
:101170000028F4D0344B4FF080521A60BFF34F8FE9
:10118000BFF36F8FEBE7FFF75DFE0020EAE702A8F1
:1011900000F050FD01251AE0002384F8443022E0DD
:1011A000002384F8453024E02046FFF728FF00F0B4
:1011B000D7FBFFF737FEA26BE36B9A42BFD3022E39
:1011C000BDD0BDF80630002BDDD0002DDFD0FFF7FD
:1011D00039FE00F02DFBFFF725FE94F844305BB29A
:1011E000B3F1FF3FD8D094F845305BB2B3F1FF3F85
:1011F000D6D0FFF727FE0DF1060102A800F026FD6C
:10120000D0B92046FFF792FE0028CDD0BDF80610D9
:1012100004F1100000F070FC2046FFF7F0FE00F033
:101220009FFB0028C5D1084B4FF080521A60BFF3D6
:101230004F8FBFF36F8FBCE72046FFF7E0FE00F053
:101240008FFB00208EE700BF04ED00E0F8B5EFF360
:1012500011864FF0BF0484F31188BFF36F8FBFF383
:101260004F8F856BC46BA54205D3022B03D00020A2
:1012700086F31188F8BD1746054690F8454064B2DC
:10128000826B1A46FFF76EFEB4F1FF3F05D00134C2
:1012900064B285F845400120EAE76B6A0BB901208A
:1012A000E6E705F1240000F05BFC18B127B101204E
:1012B0003860DDE70120DBE70120D9E7F0B585B034
:1012C00004460F46ADF8062000263CE0394620468D
:1012D000FFF783FE013DA563236923B9FFF7B2FD44
:1012E000012005B0F0BD04F1100000F039FC002829
:1012F000F4D0364B4FF080521A60BFF34F8FBFF3DC
:101300006F8FEBE7FFF79EFD0020EAE702A800F0F1
:1013100091FC012622E0002384F844302AE00023D7
:1013200084F845302CE02046FFF769FE00F018FBFA
:1013300009E02046FFF763FE00F012FB2046FFF7AE
:1013400004FE002840D1FFF76DFDA56B002DBDD137
:10135000BDF80630002BD5D0002ED7D0FFF772FD98
:1013600000F066FAFFF75EFD94F844305BB2B3F12B
:10137000FF3FD0D094F845305BB2B3F1FF3FCED001
:10138000FFF760FD0DF1060102A800F05FFC0028E8
:10139000CFD12046FFF7D9FD0028C4D0BDF80610F4
:1013A00004F1240000F0A8FB2046FFF728FE00F01F
:1013B000D7FA0028C7D1054B4FF080521A60BFF30F
:1013C0004F8FBFF36F8FBEE700208AE704ED00E088
:1013D0000023042B0CD8074A52F833200AB10133FA
:1013E000F7E7044A42F8331002EBC3035860704732
:1013F000704700BF804A002070B504460D4616466F
:10140000FFF710FD94F844305BB2B3F1FF3F0DD00D
:1014100094F845305BB2B3F1FF3F0BD0FFF712FDFC
:10142000A36B5BB12046FFF7EAFD70BD002384F893
:101430004430EDE7002384F84530EFE73246294693
:1014400004F1240000F07AFBECE70000074B1B6876
:101450001B6833B1054B1B68DB681A88044B1A8084
:101460007047034B4FF6FF721A80704734490020D3
:10147000E049002010B50446006BFFF787FB2046CB
:10148000FFF784FB10BD2DE9F04781460D46174656
:101490009A46089EDDF824800A9C9200A521206BC4
:1014A00000F055FE236B07F18042013A03EB8207FF
:1014B00027F00707002D3AD000230F2B07D8E95655
:1014C000E21882F83410EA560AB10133F5E7002336
:1014D00084F84330042E00D90426E662E664002531
:1014E0002565201DFFF77FFB04F11800FFF77BFB4C
:1014F0002461B6B2C6F10506268364620422294639
:1015000004F1540000F023FE0122294604F15800A2
:1015100000F01DFE524649463846FFF75FFC20604A
:10152000B8F1000F01D0C8F80040BDE8F0870023F3
:1015300084F83430CEE7000038B5002407E004EB2F
:10154000840293000E481844FFF742FB0134042C38
:10155000F5D90C4D2846FFF73BFB0B4C2046FFF717
:1015600037FB0A48FFF734FB0948FFF731FB09480E
:10157000FFF72EFB084B1D60084B1C6038BD00BFF9
:101580003C490020B4490020C8490020EC49002013
:10159000184A0020044A002034490020384900201D
:1015A00010B50446FFF73EFC214A1368013313606F
:1015B000204B1B685BB1204B1B686BB91D4B1B6834
:1015C000DA6AE36A9A4207D81A4B1C6004E0194BA6
:1015D0001C601368012B27D0184A1368013313606D
:1015E0006364E36A01229A401549086802430A606D
:1015F00003EB83039A00211D12481044FFF7F6FA0B
:10160000FFF720FC0C4B1B686BB10A4B1B68DA6AB6
:10161000E36A9A4207D20C4B4FF080521A60BFF334
:101620004F8FBFF36F8F10BDFFF786FFD4E700BF6A
:10163000A049002030490020004A0020AC49002089
:10164000B04900203C49002004ED00E00F4B1B682E
:10165000D3B110B5FFF7E6FB0D4BDB68DC68201D4E
:10166000FFF7EBFA0B4A1368013B1360074A136854
:10167000013B1360FFF7E6FB2046FFF7FBFE034B41
:101680001B68002BE6D110BD704700BFA4490020A5
:10169000184A0020A049002008B5FFF7D7FF064BE5
:1016A0001B68012BF9D9054B4FF080521A60BFF32C
:1016B0004F8FBFF36F8FF0E73C49002004ED00E04F
:1016C00070B504460E461F4B1D88ADB21E4B186800
:1016D0000430FFF7B2FA50B91B4B1B68DA6A0123DA
:1016E00003FA02F219490B6823EA02030B604FF672
:1016F000FF739C4215D02C44A4B2134B1B689C80F2
:10170000A54217D8124B18680F4B19680431FFF720
:1017100079FA104B1B889BB2A34212D90D4B1C8047
:101720000FE0002EE7D0084B196804310A48FFF794
:101730005DFA06E0094B1868034B19680431FFF79E
:1017400061FA70BD2C4A002030490020B0490020C9
:1017500034490020E0490020044A00203849002094
:101760002DE9F04385B00746884615469946900016
:10177000FFF7BAF9F8B106465C20FFF7B5F9044661
:10178000A8B10663D4B10023039302940D9B019387
:101790000C9B00934B462A4641463846FFF773FEA2
:1017A0002046FFF7FDFE012005B0BDE8F08330467E
:1017B000FFF7ECF9E6E74FF0FF30F5E74FF0FF30C9
:1017C000F2E7000000B583B0134B019300230093B0
:1017D000782212491248FFF7C3FF012804D00128DC
:1017E00005D003B05DF804FB00F022FBF7E74FF0F3
:1017F000BF0383F31188BFF36F8FBFF34F8F094B84
:101800004FF6FF721A80084B01221A60074B002224
:101810001A80FFF76FFBE4E7DC490020002B00088B
:1018200099160008E0490020004A00202C4A0020B8
:10183000024A136801331360704700BFA8490020B3
:1018400010B5FFF7EFFA034B1C88A4B2FFF7FAFAC2
:10185000204610BD2C4A0020F8B5364B1B68002BE3
:101860005FD1354B1D880135ADB21D80B5B1334B0D
:101870001B889BB2AB424AD90027314B1B68DB6AFD
:1018800003EB83039A002F4B9B58012B00D90127B0
:101890002D4B1B68002B4AD0012748E02B4A1168CA
:1018A0002B4B1868106019602A4A136801331360C3
:1018B000FFF7CCFDDBE70127244B1B681B6843B314
:1018C000224B1B68DB68DC68A3889D4226D3261D5B
:1018D0003046FFF7B2F9A36A1BB104F11800FFF715
:1018E000ACF9E36A01229A401B49086802430A6086
:1018F00003EB83039A00314612481044FFF776F950
:10190000E26A0F4B1B68DB6A9A42D4D2D4E7002705
:10191000D2E70A4B4FF6FF721A80AEE7074A1380F0
:10192000ABE70E4A138801339BB213800027384679
:10193000F8BD00BFA84900202C4A0020E049002043
:10194000304900203C490020304A00203449002022
:1019500038490020E4490020B0490020E84900202F
:1019600038B5FFF75FFA2F4B1A68013A1A601B6807
:10197000002B4FD12C4B1B683BB300242B4B1B6817
:101980002BB32A4BDB68DC6804F11800FFF755F92C
:10199000251D2846FFF751F9E36A01229A402449A0
:1019A000086802430A6003EB83039A002946214832
:1019B0001044FFF71BF9E26A1F4B1B68DB6A9A426F
:1019C000DCD31E4B01221A60D8E7002423E00CB1BF
:1019D000FFF73CFD1A4B1C88A4B27CB9174B1B685F
:1019E000EBB1184B4FF080521A60BFF34F8FBFF32B
:1019F0006F8F01240FE0013CA4B23CB1FFF72CFF34
:101A00000028F8D00D4B01221A60F4E70C4B00229D
:101A10001A80E3E70024FFF715FA204638BD0024BA
:101A2000F9E700BFA8490020A0490020EC490020A8
:101A3000B04900203C49002030490020304A0020B5
:101A4000E849002004ED00E010B540B90A4B4FF022
:101A500080521A60BFF34F8FBFF36F8F10BD0446E3
:101A6000FFF7E6FE00212046FFF72AFEFFF778FF8A
:101A70000028EBD0F2E700BF04ED00E0194B1B6833
:101A80001BBB10B4184B00221A60184B1B68B3FA2A
:101A900083F3DBB2C3F11F0315489A00D418A100E9
:101AA00001444C6864684C601A4491000831084451
:101AB00084420ED003EB83039A000D4B13445B6802
:101AC000DA680C4B1A6010BC7047074B01221A6091
:101AD0007047606803EB83029100054A0A44506036
:101AE000E8E700BFA8490020304A0020B0490020A4
:101AF0003C4900203049002010B50C46044B1968C1
:101B00001831FFF77FF801212046FFF7D9FD10BDFE
:101B10003049002010B51446074B1A686FEA41415E
:101B20006FEA5141118319681831FFF75FF80121FD
:101B30002046FFF7C5FD10BD3049002038B50D46E1
:101B40001446064B19681831FFF750F80CB14FF6E0
:101B5000FF7521462846FFF7B3FD38BD3049002008
:101B600038B5C368DC6804F118052846FFF765F846
:101B7000134B1B68E3B9251D2846FFF75EF8E36A9F
:101B800001229A400F49086802430A6003EB83036D
:101B90009A0029460C481044FFF728F8E26A0B4BDC
:101BA0001B68DB6A9A4208D90120094B186038BDCE
:101BB00029460848FFF71AF8F0E70020F7E700BFCA
:101BC000A8490020B04900203C49002030490020AD
:101BD000304A0020EC49002038B56FEA41416FEAF5
:101BE00051410180C468FFF728F8251D2846FFF7FA
:101BF00024F8E36A01229A400A49086802430A600D
:101C000003EB83039A00294607481044FEF7EEFFD2
:101C1000E26A064B1B68DB6A9A4202D9044B012236
:101C20001A6038BDB04900203C49002030490020EE
:101C3000304A0020034B1B680360034B1B888380E2
:101C4000704700BFE44900202C4A0020F8B5044644
:101C50000D46FFF7E7F8144B1B889BB2A0881A1AB1
:101C600029884FF6FF76B1421BD092B227680F4EFB
:101C70003668B74201D0984208D991420AD8002369
:101C80002B800124FFF7DEF82046F8BD00232B80CF
:101C90000124F7E78A1A2A802046FFF7CBFF0024A9
:101CA000F0E70024EEE700BF2C4A0020E4490020C2
:101CB000014B01221A607047304A0020054B1B6817
:101CC00033B1054B1B680BB10020704702207047F1
:101CD00001207047004A0020A8490020002830D089
:101CE00038B50446026D013A0265C06AE16C88426B
:101CF00029D00AB1002038BD251D2846FEF79DFFDA
:101D000040B9E26A012303FA02F210490B6823EAA0
:101D100002030B60E36CE3629AB2C2F10502228314
:101D2000012404FA03F20949086802430A6003EB3C
:101D300083039A00294606481044FEF757FF2046C1
:101D4000D9E7002070470020D5E700BFB049002048
:101D50003C490020044A1368188B13689B8D126855
:101D6000C3F105031383704730490020064B1A68FE
:101D700013682BB90123036023B9D368188870470F
:101D80000023F8E700207047344A002008B581801E
:101D9000006191420DD8D21A92B2038B9A4201D3BC
:101DA000012010E0011D094B1868FEF72BFF0020F1
:101DB00009E09A4201D2994206D2011D044B1868EB
:101DC000FEF720FF002008BD0120FCE7384A002074
:101DD000344A002038B5FFF725F80F4B1B6813B1C4
:101DE000FFF730F838BD0D4D2846FEF7F1FE0C4CDC
:101DF0002046FEF7EDFE0B4B1D600B4B1C600022D6
:101E00000C210A20FFF77BF9034B18600028E7D06C
:101E10000649FFF7DDFAE3E7684A00203C4A002064
:101E2000504A0020344A0020384A0020082B00087D
:101E300000B583B0FFF7CEFF084B1B6863B1084BBA
:101E40000193032300930023782206490648FFF7F5
:101E500087FC03B05DF804FB0020FAE7684A002025
:101E60006C4A0020102B00081521000830B585B001
:101E7000144C25681DB31C460191ADF80820039051
:101E8000052914DCFFF71AFF022807D000231A46A1
:101E900001A90C480068FFF749F90EE00023BDF8DE
:101EA000202001A907480068FFF740F905E000235A
:101EB000224601A92846FFF7C9F905B030BD002028
:101EC000FBE700BF684A002070B582B0174B1B6863
:101ED0001A681AB3DB681E88DC68251D2846FEF7E1
:101EE000ACFE236A2046984794F8283013F0040F7C
:101EF000ECD0238B33449BB29E4207D2A380246153
:101F000029460A4B1868FEF77DFEDFE700210091A5
:101F10000B4632462046FFF7A9FFD7E7044A106870
:101F200002490860136002B070BD00BF344A00204F
:101F3000384A002038B50546FFF782FC0446074BB7
:101F40001B88834205D800232B60044B1C8020464D
:101F500038BDFFF7B9FF01232B60F6E7644A002084
:101F600070B582B005460E46134B1B68DB68DC6813
:101F7000201DFEF762FE94F8283013F0040F08D1FC
:101F800023F0010384F82830236A2046984702B0E2
:101F900070BD218B29442B46324689B22046FFF77B
:101FA000F5FE0028F0D0002100910B462A4620467D
:101FB000FFF75CFFE8E700BF344A002070B582B04D
:101FC00004460D46FFF734FC01A8FFF7B3FF019B61
:101FD0002BBB06460DB9A04218D225B1124B1B6887
:101FE0001B68D3B90125A11B2A4689B20F4B18687B
:101FF000FFF702FAFFF7B4FC98B90D4B4FF080528F
:102000001A60BFF34F8FBFF36F8F0AE0FFF7A8FC92
:1020100031462046FFF7A4FF03E00025E3E7FFF782
:102020009FFC02B070BD00BF384A0020684A002003
:1020300004ED00E010B586B0002203A9344B186807
:10204000FFF73CF9002860D0039B002BF4DB059CD4
:10205000636913B1201DFEF7F0FD02A8FFF76AFFC8
:10206000039B092BE8D8DFE803F00505052A314278
:1020700005052A3194F8283043F0010384F828300C
:10208000BDF81030218B1944024689B22046FFF773
:102090007DFE0028D0D0236A2046984794F8283047
:1020A00013F0040FC8D0BDF81020238B1A44002170
:1020B00000910B4692B22046FFF7D8FEBCE794F899
:1020C000283023F0010384F82830B5E794F828304D
:1020D00043F0010384F82830BDF810302383191829
:1020E0000346024689B22046FFF750FEA4E794F863
:1020F000283013F0020F04D023F0010384F82830B5
:102100009AE72046FEF742FD96E706B010BD00BFF5
:10211000684A002000B583B001A8FFF727FE0199A7
:10212000FFF74CFFFFF786FFF6E70000014B18684A
:10213000704700BF2800002010B5431E0A4491429A
:1021400000D110BD11F8014B03F8014FF7E703462A
:102150000244934200D1704703F8011BF9E730B500
:10216000141E05469BB0184605DA8B234FF0FF304E
:102170002B601BB030BD4FF40273ADF80C300CBFB8
:10218000234604F1FF33029305934FF6FF7300914A
:102190000491ADF80E3002461E9B6946284600F0B9
:1021A00073F8431CBCBF8B232B60002CE1D00022B2
:1021B000009B1A70DDE7000007B5009313460A463E
:1021C000014603480068FFF7CAFF03B05DF804FB4F
:1021D000280000202DE9F0478E6882469E420C467A
:1021E0009046994637D88A8912F4906F31D00223ED
:1021F000256809696F1A656905EB450595FBF3F5D7
:1022000009F101033B449D4238BF1D46530530D5BB
:10221000294600F02BFB064650B90C234FF0FF3047
:10222000CAF80030A38943F04003A381BDE8F087DA
:102230003A462169FFF780FFA38923F4906343F0B6
:102240008003A38126613E4426604E466561ED1BF6
:10225000A5604E4500D94E4632464146206800F002
:102260009FFAA36800209B1BA36023681E4426607E
:10227000DCE72A4600F054FB06460028E2D121693B
:10228000504600F0A7FAC8E72DE9F04F9DB0039340
:102290008B8980461D060C4616460FD50B696BB917
:1022A000402100F0E3FA2060206128B90C23C8F82F
:1022B00000304FF0FF30C7E04023636100230993F3
:1022C00020238DF8293030234FF0010B8DF82A3070
:1022D00037463D4615F8013B0BB1252B3ED1B7EBF8
:1022E000060A0BD05346324621464046FFF772FF9E
:1022F000013000F0A480099B534409933B78002BE4
:1023000000F09D8000234FF0FF32CDE905230493B8
:1023100007938DF853301A932F46052217F8011BA7
:102320004F4800F02FFA049BD0B9D90644BF2022B1
:102330008DF853201A0744BF2B228DF853202A789A
:102340002A2A15D02F4600200A25079A394611F867
:10235000013B303B092B4DD9B8B10FE02F46B8E710
:102360003F4A3D46801A0BFA00F018430490D3E729
:10237000039A111D12680391002A01DB079204E001
:10238000524243F00203079204933B782E2B0CD168
:102390007B782A2B33D1039B02371A1D1B680392CB
:1023A000002BB8BF4FF0FF3305932E4D0322397831
:1023B000284600F0E7F938B14023401B03FA00F04B
:1023C000049B0137034304933978062226487E1C78
:1023D0008DF8281000F0D6F9002838D0234B13BB15
:1023E000039B073323F0070308330393099B4B44F4
:1023F00009936DE705FB023201200F46A6E7002393
:102400000A25194601370593384610F8012B303A52
:10241000092A03D9002BC8D00591C6E705FB012185
:1024200001230746F0E703AB00932246104B04A9B3
:102430004046AFF30080B0F1FF3F8146D6D1A3897B
:102440005B063FF536AF09981DB0BDE8F08F03ABD2
:1024500000932246064B04A9404600F081F8EAE7C3
:10246000182B00081E2B0008222B0008000000007B
:10247000D52100082DE9F04791461F468A680B696F
:1024800006469342B8BF1346C9F8003091F843207E
:102490000C46DDF8208012B10133C9F80030236802
:1024A000990642BFD9F800300233C9F800302568D8
:1024B00015F0060507D104F1190AE368D9F80020E0
:1024C0009B1AAB4229DC94F843302268003318BFD2
:1024D000012392062ED404F1430239463046C04708
:1024E000013021D02368E56803F00603042B18BFF0
:1024F0000025D9F800204FF0000908BFAD1AA368E5
:10250000226908BF25EAE5759342C4BF9B1AED18FE
:102510001A344D451AD1002008E0012352463946AD
:102520003046C047013003D14FF0FF30BDE8F0879F
:102530000135C2E73020E11881F843005A1C94F8B5
:1025400045102244023382F84310C4E70123224697
:1025500039463046C0470130E6D009F10109D8E7D5
:102560002DE9F04301F1430C0C46097E85B06E293C
:102570001746064698460C9A00F0B38022D8632985
:1025800036D00AD8002900F0B980582900F083809D
:1025900004F1420584F8421032E0642901D069292F
:1025A000F6D120681368050603F104012AD51B68DB
:1025B0001160002B03DA2D225B4284F843206F4820
:1025C0000A2239E0732900F09D8008D86F2920D0B5
:1025D0007029DDD1236843F02003236003E07529CF
:1025E00017D07829D4D17823654884F8453055E050
:1025F000136804F14205191D1B68116084F842300C
:1026000001238CE01B6810F0400F116018BF1BB253
:10261000CFE713682568181D1060280601D51B68D0
:1026200002E06806FBD51B886F2914BF0A22082226
:102630005248002184F843106568002DA560C0F25F
:102640009580216821F004012160002B3DD1002DEF
:1026500040F08E806546082A0BD12368DB0708D539
:10266000236962689A42DEBF302305F8013C05F118
:10267000FF35ACEB05032361CDF800803B4603AA90
:1026800021463046FFF7F6FE01304DD14FF0FF30C6
:1026900005B0BDE8F083394884F845101368216817
:1026A0001D1D1B6815600A060BD5CA0744BF41F003
:1026B000200121601BB9226822F020022260102232
:1026C000B7E74D0648BF9BB2EFE76546B3FBF2F1B3
:1026D00002FB1133C35C05F8013D0B460029F5D11F
:1026E000B9E713682568181D6169106028061B6822
:1026F00001D5196002E06A06FBD519800023654602
:102700002361B9E71368191D11601D686268002113
:10271000284600F037F808B1401B60606368236109
:10272000002384F84330A7E723692A463946304618
:10273000C0470130AAD023689B0713D4E068039BED
:102740009842B8BF1846A3E701234A4639463046A7
:10275000C04701309AD00135E368039A9B1AAB4217
:10276000F2DCEBE7002504F11909F5E7002BACD109
:10277000037804F1420584F842306CE7292B000805
:102780003A2B000810B5C9B202449042034601D169
:10279000002303E01C7801308C42F6D1184610BDAE
:1027A000884210B501EB020307D8421E99420AD0B5
:1027B00011F8014B02F8014FF8E78342F5D981186F
:1027C000D21AD34200D110BD13F8014D01F8014DCA
:1027D000F7E7000038B50546002943D051F8043C1E
:1027E0000C1F002BB8BFE41800F0D0F81E4A136885
:1027F000104633B9636014602846BDE8384000F0E5
:10280000C6B8A3420BD921686218934201BF1A6867
:102810005B685218226063600460EDE713465A68F3
:102820000AB1A242FAD919685818A0420BD12068FF
:102830000144581882421960DED110685268014480
:1028400019605A60D8E702D90C232B60D4E72068BE
:1028500021188A4201BF116852680918216062601C
:102860005C60C9E738BD00BF704A002070B5CD1C60
:1028700025F0030508350C2D38BF0C25002D064624
:1028800001DBA94203D90C233360002070BD00F0A6
:102890007DF8214A1468214691B9204C23681BB960
:1028A000304600F063F820602946304600F05EF8BC
:1028B000431C24D10C233046336000F068F8E4E771
:1028C0000B685B1B18D40B2B0FD90B60CC18CD50A9
:1028D000304600F05CF804F10B00231D20F00700E7
:1028E000C31AD3D05A42E250D0E74B688C4216BF8D
:1028F000636013600C46EBE70C464968CCE7C41CE8
:1029000024F00304A04205D0211A304600F02EF82E
:102910000130CFD02560DBE7704A0020744A0020E8
:10292000F8B5074614460E4621B9BDE8F8401146F1
:10293000FFF79CBF22B9FFF74DFF25462846F8BD9B
:1029400000F026F8A0420FD221463846FFF78EFF4E
:1029500005460028F2D031462246FFF7EDFB31460E
:102960003846FFF737FFE9E73546E7E738B5002394
:10297000054C054608462360FDF704FD431C02D1C3
:10298000236803B12B6038BD784A00207047704738
:1029900051F8043C181F002BBCBF0B58C0187047DF
:1029A000537461636B206672616D653A0A000000C2
:1029B000205230203D2020253038580A00000000E9
:1029C000205231203D2020253038580A00000000D8
:1029D000205232203D2020253038580A00000000C7
:1029E000205233203D2020253038580A00000000B6
:1029F00020523132203D20253038580A0000000096
:102A0000204C52203D2020253038580A000000007C
:102A1000205043203D2020253038580A0000000077
:102A200020505352203D20253038580A0000000025
:102A30004653522F4641523A0A0000002043465363
:102A400052203D2020253038580A000020484653A7
:102A500052203D2020253038580A0000204446539B
:102A600052203D2020253038580A0000204146538E
:102A700052203D2020253038580A0000204D4D4678
:102A80004152203D20253038580A0000204246415E
:102A900052203D2020253038580A00004D697363CC
:102AA0000A000000204C522F4558435F52455455B0
:102AB000524E3D20253038580A0000005B486172B4
:102AC000644661756C745D0A000000005B427573BA
:102AD0004661756C745D0A005B557361676546619C
:102AE000756C745D0A0000005461736B3100000066
:102AF000627574746F6E3100627574746F6E32003B
:102B000049444C4500000000546D72510000000023
:102B1000546D722053766300232D302B2000686C97
:102B20004C006566674546470030313233343536F0
:102B30003738394142434445460030313233343529
:0B2B4000363738396162636465660057
:102B4C0078563412980000200000000000000000AD
:102B5C0000000000010203040607080900A24A0451
:102B6C00F8470000AAAAAAAA2C0000200000000026
:102B7C000000000000000000000000000000000049
:102B8C000000000000000000000000000000000039
:102B9C000000000000000000000000000000000029
:102BAC000000000000000000000000000000000019
:102BBC000000000000000000000000000000000009
:102BCC000000000000000000000000003254769865
:040000050800010DE1
:00000001FF
